{
	"data": {
		"bytecode": {
			"linkReferences": {},
			"object": "608060405234801561001057600080fd5b5061034d806100206000396000f3fe608060405234801561001057600080fd5b506004361061004c5760003560e01c806306fdde031461005157806327722f6a1461006f5780636ca14bfd1461008e578063919840ad146100ac575b600080fd5b6100596100ca565b6040516100669190610208565b60405180910390f35b61007761010d565b60405161008592919061025c565b60405180910390f35b610096610149565b6040516100a391906102c6565b60405180910390f35b6100b461016a565b6040516100c191906102fc565b60405180910390f35b606060006040518060400160405280600781526020017f5374657068656e0000000000000000000000000000000000000000000000000081525090508091505090565b60008060006201e240905060007ffffffffffffffffffffffffffffffffffffffffffffffffffffffffffffe1dc0905081819350935050509091565b60008073999999cf1046e68e36e1aa2e0e07105eddd1f08e90508091505090565b600080600190508091505090565b600081519050919050565b600082825260208201905092915050565b60005b838110156101b2578082015181840152602081019050610197565b60008484015250505050565b6000601f19601f8301169050919050565b60006101da82610178565b6101e48185610183565b93506101f4818560208601610194565b6101fd816101be565b840191505092915050565b6000602082019050818103600083015261022281846101cf565b905092915050565b6000819050919050565b61023d8161022a565b82525050565b6000819050919050565b61025681610243565b82525050565b60006040820190506102716000830185610234565b61027e602083018461024d565b9392505050565b600073ffffffffffffffffffffffffffffffffffffffff82169050919050565b60006102b082610285565b9050919050565b6102c0816102a5565b82525050565b60006020820190506102db60008301846102b7565b92915050565b60008115159050919050565b6102f6816102e1565b82525050565b600060208201905061031160008301846102ed565b9291505056fea2646970667358221220b26a2ea29bc1d04367ae5217cc7df34ec62a0f0f1d4dab5fa0c601f07f6faec164736f6c63430008120033",
			"opcodes": "PUSH1 0x80 PUSH1 0x40 MSTORE CALLVALUE DUP1 ISZERO PUSH2 0x10 JUMPI PUSH1 0x0 DUP1 REVERT JUMPDEST POP PUSH2 0x34D DUP1 PUSH2 0x20 PUSH1 0x0 CODECOPY PUSH1 0x0 RETURN INVALID PUSH1 0x80 PUSH1 0x40 MSTORE CALLVALUE DUP1 ISZERO PUSH2 0x10 JUMPI PUSH1 0x0 DUP1 REVERT JUMPDEST POP PUSH1 0x4 CALLDATASIZE LT PUSH2 0x4C JUMPI PUSH1 0x0 CALLDATALOAD PUSH1 0xE0 SHR DUP1 PUSH4 0x6FDDE03 EQ PUSH2 0x51 JUMPI DUP1 PUSH4 0x27722F6A EQ PUSH2 0x6F JUMPI DUP1 PUSH4 0x6CA14BFD EQ PUSH2 0x8E JUMPI DUP1 PUSH4 0x919840AD EQ PUSH2 0xAC JUMPI JUMPDEST PUSH1 0x0 DUP1 REVERT JUMPDEST PUSH2 0x59 PUSH2 0xCA JUMP JUMPDEST PUSH1 0x40 MLOAD PUSH2 0x66 SWAP2 SWAP1 PUSH2 0x208 JUMP JUMPDEST PUSH1 0x40 MLOAD DUP1 SWAP2 SUB SWAP1 RETURN JUMPDEST PUSH2 0x77 PUSH2 0x10D JUMP JUMPDEST PUSH1 0x40 MLOAD PUSH2 0x85 SWAP3 SWAP2 SWAP1 PUSH2 0x25C JUMP JUMPDEST PUSH1 0x40 MLOAD DUP1 SWAP2 SUB SWAP1 RETURN JUMPDEST PUSH2 0x96 PUSH2 0x149 JUMP JUMPDEST PUSH1 0x40 MLOAD PUSH2 0xA3 SWAP2 SWAP1 PUSH2 0x2C6 JUMP JUMPDEST PUSH1 0x40 MLOAD DUP1 SWAP2 SUB SWAP1 RETURN JUMPDEST PUSH2 0xB4 PUSH2 0x16A JUMP JUMPDEST PUSH1 0x40 MLOAD PUSH2 0xC1 SWAP2 SWAP1 PUSH2 0x2FC JUMP JUMPDEST PUSH1 0x40 MLOAD DUP1 SWAP2 SUB SWAP1 RETURN JUMPDEST PUSH1 0x60 PUSH1 0x0 PUSH1 0x40 MLOAD DUP1 PUSH1 0x40 ADD PUSH1 0x40 MSTORE DUP1 PUSH1 0x7 DUP2 MSTORE PUSH1 0x20 ADD PUSH32 0x5374657068656E00000000000000000000000000000000000000000000000000 DUP2 MSTORE POP SWAP1 POP DUP1 SWAP2 POP POP SWAP1 JUMP JUMPDEST PUSH1 0x0 DUP1 PUSH1 0x0 PUSH3 0x1E240 SWAP1 POP PUSH1 0x0 PUSH32 0xFFFFFFFFFFFFFFFFFFFFFFFFFFFFFFFFFFFFFFFFFFFFFFFFFFFFFFFFFFFE1DC0 SWAP1 POP DUP2 DUP2 SWAP4 POP SWAP4 POP POP POP SWAP1 SWAP2 JUMP JUMPDEST PUSH1 0x0 DUP1 PUSH20 0x999999CF1046E68E36E1AA2E0E07105EDDD1F08E SWAP1 POP DUP1 SWAP2 POP POP SWAP1 JUMP JUMPDEST PUSH1 0x0 DUP1 PUSH1 0x1 SWAP1 POP DUP1 SWAP2 POP POP SWAP1 JUMP JUMPDEST PUSH1 0x0 DUP2 MLOAD SWAP1 POP SWAP2 SWAP1 POP JUMP JUMPDEST PUSH1 0x0 DUP3 DUP3 MSTORE PUSH1 0x20 DUP3 ADD SWAP1 POP SWAP3 SWAP2 POP POP JUMP JUMPDEST PUSH1 0x0 JUMPDEST DUP4 DUP2 LT ISZERO PUSH2 0x1B2 JUMPI DUP1 DUP3 ADD MLOAD DUP2 DUP5 ADD MSTORE PUSH1 0x20 DUP2 ADD SWAP1 POP PUSH2 0x197 JUMP JUMPDEST PUSH1 0x0 DUP5 DUP5 ADD MSTORE POP POP POP POP JUMP JUMPDEST PUSH1 0x0 PUSH1 0x1F NOT PUSH1 0x1F DUP4 ADD AND SWAP1 POP SWAP2 SWAP1 POP JUMP JUMPDEST PUSH1 0x0 PUSH2 0x1DA DUP3 PUSH2 0x178 JUMP JUMPDEST PUSH2 0x1E4 DUP2 DUP6 PUSH2 0x183 JUMP JUMPDEST SWAP4 POP PUSH2 0x1F4 DUP2 DUP6 PUSH1 0x20 DUP7 ADD PUSH2 0x194 JUMP JUMPDEST PUSH2 0x1FD DUP2 PUSH2 0x1BE JUMP JUMPDEST DUP5 ADD SWAP2 POP POP SWAP3 SWAP2 POP POP JUMP JUMPDEST PUSH1 0x0 PUSH1 0x20 DUP3 ADD SWAP1 POP DUP2 DUP2 SUB PUSH1 0x0 DUP4 ADD MSTORE PUSH2 0x222 DUP2 DUP5 PUSH2 0x1CF JUMP JUMPDEST SWAP1 POP SWAP3 SWAP2 POP POP JUMP JUMPDEST PUSH1 0x0 DUP2 SWAP1 POP SWAP2 SWAP1 POP JUMP JUMPDEST PUSH2 0x23D DUP2 PUSH2 0x22A JUMP JUMPDEST DUP3 MSTORE POP POP JUMP JUMPDEST PUSH1 0x0 DUP2 SWAP1 POP SWAP2 SWAP1 POP JUMP JUMPDEST PUSH2 0x256 DUP2 PUSH2 0x243 JUMP JUMPDEST DUP3 MSTORE POP POP JUMP JUMPDEST PUSH1 0x0 PUSH1 0x40 DUP3 ADD SWAP1 POP PUSH2 0x271 PUSH1 0x0 DUP4 ADD DUP6 PUSH2 0x234 JUMP JUMPDEST PUSH2 0x27E PUSH1 0x20 DUP4 ADD DUP5 PUSH2 0x24D JUMP JUMPDEST SWAP4 SWAP3 POP POP POP JUMP JUMPDEST PUSH1 0x0 PUSH20 0xFFFFFFFFFFFFFFFFFFFFFFFFFFFFFFFFFFFFFFFF DUP3 AND SWAP1 POP SWAP2 SWAP1 POP JUMP JUMPDEST PUSH1 0x0 PUSH2 0x2B0 DUP3 PUSH2 0x285 JUMP JUMPDEST SWAP1 POP SWAP2 SWAP1 POP JUMP JUMPDEST PUSH2 0x2C0 DUP2 PUSH2 0x2A5 JUMP JUMPDEST DUP3 MSTORE POP POP JUMP JUMPDEST PUSH1 0x0 PUSH1 0x20 DUP3 ADD SWAP1 POP PUSH2 0x2DB PUSH1 0x0 DUP4 ADD DUP5 PUSH2 0x2B7 JUMP JUMPDEST SWAP3 SWAP2 POP POP JUMP JUMPDEST PUSH1 0x0 DUP2 ISZERO ISZERO SWAP1 POP SWAP2 SWAP1 POP JUMP JUMPDEST PUSH2 0x2F6 DUP2 PUSH2 0x2E1 JUMP JUMPDEST DUP3 MSTORE POP POP JUMP JUMPDEST PUSH1 0x0 PUSH1 0x20 DUP3 ADD SWAP1 POP PUSH2 0x311 PUSH1 0x0 DUP4 ADD DUP5 PUSH2 0x2ED JUMP JUMPDEST SWAP3 SWAP2 POP POP JUMP INVALID LOG2 PUSH5 0x6970667358 0x22 SLT KECCAK256 0xB2 PUSH11 0x2EA29BC1D04367AE5217CC PUSH30 0xF34EC62A0F0F1D4DAB5FA0C601F07F6FAEC164736F6C6343000812003300 "
		},
		"gasEstimates": {
			"creation": {
				"codeDepositCost": "169000",
				"executionCost": "214",
				"totalCost": "169214"
			},
			"external": {
				"check()": "400",
				"myAdress()": "421",
				"name()": "infinite",
				"numbers()": "477"
			}
		},
		"methodIdentifiers": {
			"check()": "919840ad",
			"myAdress()": "6ca14bfd",
			"name()": "06fdde03",
			"numbers()": "27722f6a"
		}
	},
	"abi": [
		{
			"inputs": [],
			"name": "check",
			"outputs": [
				{
					"internalType": "bool",
					"name": "",
					"type": "bool"
				}
			],
			"stateMutability": "pure",
			"type": "function"
		},
		{
			"inputs": [],
			"name": "myAdress",
			"outputs": [
				{
					"internalType": "address",
					"name": "",
					"type": "address"
				}
			],
			"stateMutability": "pure",
			"type": "function"
		},
		{
			"inputs": [],
			"name": "name",
			"outputs": [
				{
					"internalType": "string",
					"name": "",
					"type": "string"
				}
			],
			"stateMutability": "pure",
			"type": "function"
		},
		{
			"inputs": [],
			"name": "numbers",
			"outputs": [
				{
					"internalType": "uint256",
					"name": "",
					"type": "uint256"
				},
				{
					"internalType": "int256",
					"name": "",
					"type": "int256"
				}
			],
			"stateMutability": "pure",
			"type": "function"
		}
	]
}